:040000006F00100578
:10000400000000000000000090000020B003002069
:10001400A9BDF9F5940000200000000000000000D4
:10002400960000209800002000000000000000005E
:10003400F8010020000000009C00002000000000E7
:10004400C6000020A0000020A2000020A400002080
:10005400A6000020A8000020AA000020AC00002078
:10006400D0010020B0000020B2000020B400002025
:10007400B6000020B8000020BA000020BC00002018
:10008400BE000020C000002068010020C400002041
:1000940001A001A001A001A001A001A001A001A054
:1000A40001A001A001A001A001A001A001A001A044
:1000B40001A001A001A001A001A001A001A001A034
:1000C40001A001A001A03727004083476700858B6A
:1000D40081C785472303F700138701A25C57384380
:1000E400850723A6F1A4914663E6E60297C600E0DD
:1000F400938606E20A07369718433697028719470C
:10010400637AF70023A601A4854723A0F1A619A0CA
:1001140023A601A4730020300947E37DF7FE8D4731
:10012400EDB71947E378F7FE83C701A585CF238888
:1001340001A423A601A423AA01A6854723A0F1A60E
:1001440083C71185FD17E207E187A388F184E343A0
:10015400F0FC372700408347070093F7B70F2300CD
:10016400F7004DBF9147D9BF37470040834747C089
:100174009946BD8B6382D702411122C63147374469
:1001840000406381E7041147374400406380E7027D
:100194003244410173002030834757C0730020303C
:1001A400034584C0972000E0E780C0328347A4C0A1
:1001B40093F7F70FF5F7E9BF034584C0972000E0F4
:1001C400E78040318347A4C093F7F70FF5F7C9B729
:1001D400B727004003C76740058B09CF03C7074013
:1001E4001377B70F2380E74005472383E74085470C
:1001F40023AAF18473002030138781861C43504363
:1002040093861700B3B7F600B2975CC314C3B7F76D
:1002140000E023A2070073002030B71700409306C4
:1002240070052380D704130780FA2380E7040100B4
:10023400010003C6B7041376F60DA385C704238013
:1002440007041376050259CE03C6A700118A1DE2DE
:100254002380D7042380E7040100010003C7A7001B
:10026400136747002385E7009307004B0100010053
:10027400FD17EDFFB7170040930670052380D704E0
:10028400130780FA2380E704010001007D89239489
:10029400A70001000100010001002380070423805E
:1002A400D7042380E70401000100372700409306A8
:1002B4001005A303D78023800704B7170040130752
:1002C40070052380E704130780FA2380E704010004
:1002D400010003C7B70413670708A385E704238055
:1002E40007048280137605042DCA03C6A700418A39
:1002F4001DE22380D7042380E7040100010003C723
:10030400A700136707012385E7009307007D010019
:100314000100FD17EDFFB717004093067005238019
:10032400D704130780FA2380E704010001007D89C4
:10033400136505042394A7000100010001000100D6
:10034400238007042380D7042380E70401000100ED
:100354003727004093062005A9BF2380D7042380B4
:10036400E7040100010003D787001367070C2394F7
:10037400E700A1B74111814601468145114506C6F2
:10038400B12AB7170040130770052380E704130749
:1003940080FA2380E7040100010003C767041367A0
:1003A40017002383E70423800704B24041018280BD
:1003B40081460146814511451522B71700401307B0
:1003C40070052380E704130780FA2380E704010003
:1003D40001007D572396E70203C7670413671700DC
:1003E4002383E7042380070401A0BD473305F502F6
:1003F40001007D1575FD8280411122C426C206C606
:10040400AA84014463179400B240224492444101F7
:10041400828005041305803E4204C13F4180DDB75C
:100424002303048015472303E48001002302A480EE
:10043400828083076480E3CE07FE230304808280E6
:1004440083076480E3CE07FE0345448082808307EC
:100454006480E3CE07FE2302A4808280411126C477
:100464004AC24EC006C61377F50BAD47AA892E893A
:1004740095446306F70019456537653F8D444E85FD
:100484004537FD59FD1463983401B240A244124922
:10049400824941018280135509011375F50F453FC7
:1004A4002209CDB7011126CC06CEB7040800513776
:1004B4001545BD37713769372AC6A53F324593774D
:1004C400150089EB136515001375F50FF240E2442E
:1004D40005618280FD14E9FC0145CDBF397126DC3C
:1004E4004ADA4ED852D656D45AD25ED006DE62CEFE
:1004F40066CCB7E700E07D5783AA070022C603AAAB
:10050400470023A0E71823A2E718B71700401307F2
:1005140070052380E704130780FA2380E70483C768
:100524004704930B75FFB684E20793FBFB0F8546E4
:10053400AA892E8B328937240040E187015763FA58
:1005440076016308D5008946130700026313D500BA
:100554000157D98F93F7F70FB71C00402382FC048F
:1005640011472303E4801305F00F5D3D094CD13599
:10057400636D7C11B7050700DA9537870700795555
:1005840063F2E504B3879500636EF702370B080046
:10059400A94733EB65016399F90689E48144513D28
:1005A40026850DA0DA850945553D05090345F9FF62
:1005B400FD14050B693D81C49377FB0FFDF7DD3511
:1005C40069FD7D55B7170040130770052380E704C4
:1005D400130780FA2380E70403C74704418B23826F
:1005E400E704F250B7E700E023A0571123A2471114
:1005F400E25432445259C259325AA25A125B825BB3
:10060400724CE24C21618280A5476395F9068569A5
:100614001309F00FB3069900B3742B01B694134970
:10062400F9FFB3749900856B33796901416B938742
:10063400F9FFB3F7270199E363FC340193D9490027
:10064400C147E3E637FF99BF0569C1697D19D9B789
:100654001305800D63886901130500026384790121
:1006640013051008CA85DD3B353D21DD4E99B38461
:100674003441D9B7DA852D45D533CA94E30099F2CC
:1006840005097D3BA30FA9FED5BF9387F9FF93F717
:10069400F70F6361FC0C83C71C0413073008631F46
:1006A400F70437070800636BEB04B3079B00B70636
:1006B400100063F5D704334BEB0089476393F906C5
:1006C4008980D549E38C04ECDA850945413B11095D
:1006D4000327C9FF91472320E48003076480E34E86
:1006E40007FE23033481FD17EDFBFD14110B81C4B8
:1006F4009377FB0FE9FF7D3371F5E1B5B717004040
:1007040003C75704B70708001377070219E3B7872D
:1007140007007955E378FBEA33079B00E3FFE7F82A
:1007240055B58547E382F9F2DA852D45053B938972
:10073400F4FFE38504E6293393F7390091EB83262C
:1007440004800327090093074900E39AE6E43E89FD
:10075400CE84F1BFB5476396F9001305900BC931F8
:1007640035BDB1471305B00AE38BF9FE9947639190
:10077400F904B7050800B365BB002D45C5318144B4
:100784008D4BA14975396396740183270480232016
:10079400F9008504E39834FF8327048013172B01A1
:1007A400635507002312F900D5BB2322F900FDB3DA
:1007B4009D476399F90281451305B0044531BD4451
:1007C4002320090023220900FD599D3993F7740061
:1007D400CA9703C70700FD14398D2380A700E39649
:1007E40034FF6DBBA1476392F9046D398144630DF5
:1007F4000B008D479304C0036308FB0093040005BA
:1008040063048B01930440041375C507E30895D86A
:100814001945393139390545213126850D390945BF
:100824003D314931E31C05D669BB91476399F90011
:1008340013056006F536F53E130590090DB7E38FF1
:0808440009D4F154A9BB000026
:1008500097110020938101A5177100201301817A5F
:100860001305400097F5FF1F9385C57917060020F3
:100870001306C6FD63FAC5008322050023A05500B8
:1008800011059105E3EAC5FE17F500001305059D66
:1008900097050020938585FB1386018163FAC500C7
:1008A0008322050023A0550011059105E3EAC5FE4A
:1008B000138501849385814A6377B5002320050061
:1008C0001105E36DB5FEFD42739002BC8D4273903D
:1008D00042809302800873A0023097F2FF1F938238
:1008E000627293E23200739052309712000093824A
:1008F00062BE73901234730020303D432A876373C5
:10090000C3029377F700BDEFADE5937606FF3D8A0E
:10091000BA960CC34CC30CC74CC74107E36BD7FE58
:1009200011E28280B306C3408A06970200009696C1
:100930006780A6002307B700A306B7002306B70009
:10094000A305B7002305B700A304B7002304B7002D
:10095000A303B7002303B700A302B7002302B70025
:10096000A301B7002301B700A300B7002300B7001D
:10097000828093F5F50F93968500D58D93960501AA
:10098000D58D61B7939627009702000096968682D0
:10099000E78086FA9680C1171D8F3E96E374C3F8F0
:1009A000A5B79317050141815D8D3707FF00935768
:1009B00085001307F70FF98F370701FF130707F0BB
:1009C0002205798D5D8D37170F0F9357450013075B
:1009D000F7F0F98F37F7F0F01307070F1205798D4D
:1009E0005D8D373733339357250013073733F98F2E
:1009F00037D7CCCC1307C7CC0A05798DC98F3757A9
:100A0000555513D5170013075755798D37B7AAAA2F
:100A100086071307A7AAF98F5D8D9D47638BF502A3
:100A200063EDB7009547638AF50263E6B702914725
:100A300071816385F50201458280C1476389F500B4
:100A400093070002638CF500A1476181DDB7418106
:100A5000828065818280698182806D8182800111BE
:100A600022CC26CA06CE2E84B384070139C2914512
:100A70003EC63AC43D372247B2471375F50F639916
:100A8000970033458700F2406244D244056182807A
:100A9000850783C6F7FF358CA146137614000580C1
:100AA00001C6298C1374F40FFD1693F6F60FF5F6B4
:100AB000F9B7939645009318450093F6F60F93F80F
:100AC000F80F63969700918233C5E6006DBF8507E6
:100AD00003C6F7FFB18E214693958601E185860610
:100AE00093F6F60F63D40500B3C616017D16137690
:100AF000F60F7DF2F9B7011122CC26CA06CE2E845C
:100B0000B384070139C295453EC63AC4593D2247D0
:100B1000B2471375F50F6399970033458700F2408C
:100B20006244D24405618280850783C6F7FF358C15
:100B3000A14613761400058001C6298C1374F40FA6
:100B4000FD1693F6F60FF5F6F9B793963500931860
:100B5000350093F6F60F93F8F80F639697008D82A1
:100B600033C5E6006DBF850703C6F7FFB18E21468A
:100B700093958601E185860693F6F60F63D405000A
:100B8000B3C616017D161376F60F7DF2F9B7011183
:100B900022CC26CA06CE2E84B384070139C29945D9
:100BA0003EC63AC4FD3B2247B2471375F50F639921
:100BB000970033458700F2406244D2440561828049
:100BC000850783C6F7FF358CA14613761400058090
:100BD00001C6298C1374F40FFD1693F6F60FF5F683
:100BE000F9B7939625009318250093F6F60F93F81E
:100BF000F80F63969700898233C5E6006DBF8507BD
:100C000003C6F7FFB18E214693958601E1858606DE
:100C100093F6F60F63D40500B3C616017D1613765E
:100C2000F60F7DF2F9B7011122CC26CA06CE2E842A
:100C3000B384070139C29D453EC63AC49D3322475D
:100C4000B2471375F50F6399970033458700F2405B
:100C50006244D24405618280850783C6F7FF358CE4
:100C6000A14613761400058001C6298C1374F40F75
:100C7000FD1693F6F60FF5F6F9B79396150093184F
:100C8000150093F6F60F93F8F80F63969700858298
:100C900033C5E6006DBF850703C6F7FFB18E214659
:100CA00093958601E185860693F6F60F63D40500D9
:100CB000B3C616017D161376F60F7DF2F9B779717A
:100CC00022D426D24AD04ECE06D6AA892E84BA8401
:100CD000338907016311F90291C62285A145D131FB
:100CE0001374F50F33459400B250225492540259B4
:100CF000F2494561828003C50700850715CAA145F1
:100D00003EC636C432C271391246A246B247298C59
:100D10001374F40FA145131784016187060413743B
:100D2000F40F6354070033C48900FD15EDF55DB77A
:100D3000298CCDB7797122D426D24AD04ECE06D690
:100D4000AA892E84BA84338907016312F90299C6ED
:100D50002285C145B9311314050141803345940002
:100D6000B250225492540259F2494561828003C51F
:100D7000070085071DCAA1453EC636C432C21531DB
:100D80002205298C1246A246B24742044180A14561
:100D9000131704010604420441874180635407008D
:100DA00033C48900FD15EDF54DB72205298CC5B773
:100DB000797122D426D24AD04ECE06D6AA892E8464
:100DC000BA84338907016311F90291C6228593051C
:100DD0000002C13E2A8433459400B25022549254FA
:100DE0000259F2494561828003C5070085070DC697
:100DF000A1453EC636C432C26D361246A246B2473F
:100E00006205298CA14522870604635407003344F8
:100E10003401FD15EDF945BF6205298CE5B7411197
:100E200006C6034705009D46AE873288630AD70889
:100E300063EEE6009546630DD70463E7E606914648
:100E4000630CD7020145B24041018280C14663056F
:100E5000D70893060002630DD708A146E314D7FE16
:100E6000034705018346D5000346C5008345850039
:100E700003454500A935C1BF034705018346D50099
:100E80000346C5008345850003454500C93E65BF4F
:100E9000034705018346D5000346C5008345850009
:100EA00003454500893945B7034705018346D50009
:100EB0000346C5008345850003454500C93961B730
:100EC000034705018346D5000346C50083458500D9
:100ED00003454500893B85BF035705018346D5007F
:100EE0000346C5008355850003554500A135A1BFC4
:100EF00018498346D5000346C5000C45B240484119
:100F000041017DB571CA757126C34AC1CEDED2DCFE
:100F1000D6DADAD8DED6E2D4E6D2EAD0EECE06C70A
:100F200022C52A892E8AB284B689C14A97BB00009D
:100F3000938B8B00054B094C914C154D97BD0000D0
:100F4000938D0D03268463F39A004144420441804B
:100F5000740801473306EA00034606003685DE853D
:100F60003AC636C4EF80E0583247A2467C080507EF
:100F70008D06E34187FE3E86CA8517B5000013053E
:100F800025FC6385690317B50000130525FC638FF5
:100F9000890117B50000130525FC6389990117B570
:100FA0000000130525FC6383A9016E85818CC204B2
:100FB000C180EF80A03E229AD1F4BA402A449A44DC
:100FC0000A49F659665AD65A465BB65B265C965C69
:100FD000065DF64D496182808280D8418946630B67
:100FE000D70095476366D7008D476308F7008147B0
:100FF0003E85828023120600DDBF98419147E318A9
:10100000F7FE75D57C45411122C426C206C62E8442
:10101000AA8499C783D5A50003558400829701E966
:10102000BC4891C78355A400035584008297B24001
:101030002244814792443E854101828097070020E7
:10104000938747A603D62700C84381451D060D8216
:101050006DB09707002083D7E7A46360F5041707F6
:101060000020035747A43E976379E5021D8D420592
:101070004181137775008547B397E7001707002074
:10108000130747A258430D813A950347050099E598
:1010900093C7F7FFF98F2300F5008280D98FE5BF52
:1010A000DC4191C709476385E7020D45828003D77C
:1010B00085009706002083D6E69E6361D7069707D2
:1010C000002083D7479EB69701456359F704828075
:1010D00083D785009706002083D6C69C014763EB23
:1010E000D7029705002083D5059CB69563D4B70237
:1010F000958F170700201307E79AC2075843C1834B
:1011000093D637003697034707009D8BB357F740B8
:1011100013F717002312E60001458280411197B5AD
:1011200000009385A5E517B50000130565E606C622
:10113000EF80C026B24015454101828001E523922F
:10114000B184828085476314F5002394B184828042
:10115000DC412320060091C70947638BE700154552
:10116000828003D7850085470145E3EAE7FE828058
:1011700003D7850019E783D741842312F600014580
:10118000FDB785468147E31AD7FE83D78184F5B73B
:101190002392018423940184828017B700001307EF
:1011A00027E017B600001306A6E283574700636ED8
:1011B000F50083566700BE966379D5001447B307E0
:1011C000F5408607B6972390B7003107E31FC7FCA9
:1011D000828017B700001307A7DC8147BA86114841
:1011E000035647006362C50283556700B295637D6D
:1011F000B5003147B387E702118D0605B6979C47C6
:101200003E9503550500828085073107E39A07FD67
:1012100001458280D8412320060085466300D70817
:101220001DC7411122C426C24AC006C68947328959
:101230002E84AA84630AF7048D47630EF70A814758
:10124000B2402244924402493E8541018280984145
:101250008D476319D70283D6850097B7000093871F
:1012600027D497B500009385A5D603D6470063E73A
:10127000C60003D76700329763C8E606B107E39656
:10128000F5FE95473E85828098418D47E31AD7FA4F
:1012900003D585003D3F2312A90055B794418D47E2
:1012A000E392E6FE83D5850017B70000130747CF0A
:1012B0008147BA8691480358470063E905030356FE
:1012C0006700429663D4C5023147B387E702B697F9
:1012D000984385468147E307D7FA89469547E31344
:1012E000D7FA0347150359DF814769BF85073107DF
:1012F000E39317FD79B798418D47E313D7F439E9A4
:10130000835684000355A40017B70000130747C98C
:1013100097B500009385C5CB8357470063EEF60071
:10132000035667003E9663F9C6001047B387F64040
:101330008607B2972390A7003107E39FE5FCE3807F
:1013400004F0BC44E38D07EE8355A40003558400EC
:101350008297F5B57C41CDD783D5A5000355840090
:101360008297E31E05EC69BF3D479387418963641B
:10137000B7008D8FC10741472E866373B700414682
:101380004206AA8541823E856F70603E411122C4AB
:1013900026C206C617B40000130484C097B4000028
:1013A000938404C30356640008448145060631044F
:1013B000EFF0AFD4E31894FEB240224492444101CE
:1013C000828001118146500081451D4506CE22CC08
:1013D00026CA4AC802C202C42316010097F0FF1FA2
:1013E000E780001017B50000130585C9EF70107B6A
:1013F000014417B90000130929B4A1445C00A29765
:1014000083C507004A850504EF705079E31894FE00
:1014100017D5000013054505EF80400AF2406244ED
:10142000D24442490145056182804111B71700400D
:1014300006C622C403C4470417B50000130585BDC2
:10144000EF70D0751374F40F93777400FD1793F752
:10145000F70F194717B50000130545BC636FF70078
:1014600017B700001307C7B68A07BA979C43BA9705
:10147000828717B50000130525BBEF70307217D5B2
:101480000000130565FEEF806003B2402244014571
:101490004101828017B50000130585B9F9BF17B562
:1014A0000000130525B9D1BF17B50000130585B994
:1014B000E9B717B500001305E5B9C1B717B50000C6
:1014C000130545BA5DBF17B50000130565BA75B7BA
:1014D00001111305800406CE22CC26CA4AC84EC686
:1014E00097F0FF1FE780A0D3EF30707C05453714DD
:1014F0000040EF40C0278327840A8545130500106C
:1015000093E707202324F40AEF40800D8D4513054F
:101510000020EF40E00CEF4020318D4537050400FE
:10152000EF4060168327840C370704000149D98FE8
:101530002324F40CA3010404CD3D17B500001305CA
:10154000E5AAEF70B077B53DA3010404EF10300CAD
:10155000EF102043EF10D0200145EF10C03BA30156
:101560000404EF10103FB928A30104048125A12B26
:10157000A3010404EF203059A3010404EF20A00EBE
:1015800017B50000130585A7A3010404EF701073BD
:1015900081499304703EA30104044A85CE85EF304F
:1015A000507599E163FDA400EF3010742A89AE896B
:1015B000EF209016A30104041D20A3010404EF20D2
:1015C0001057D1BF411189451305000806C6EF40E9
:1015D0002001B2408945014541016F30307C2571C1
:1015E0001306000581450810232E1118232A91188F
:1015F000232821192326311923244119232C81184A
:101600002322511923206119232E7117232C8117AE
:10161000232A91172328A1172326B117EFF0EFAD46
:10162000EF30B06EAA85AA8417B50000130505A98E
:10163000EF70D056B71700402D47238CE704A30D59
:101640000100930900004D4A17B90000130989A849
:101650008347B1016379FA0A97B70000938707A31C
:101660008C434E8593840114EF6040312A84EF60EF
:10167000B0602A86AE8617B500001305A5A7EF70E7
:10168000F05117BD0000130DADA080C002CE97B978
:101690000000938929A017BA0000130AEA9F97BA9D
:1016A0000000938A2AA117BB0000130B2B9F97BB46
:1016B0000000938BEB9E17B900001309A99E17BC7D
:1016C0000000130C6C9E7247CD4763DBE708832054
:1016D000C11903248119832441190329011983297C
:1016E000C118032A8118832A4118032B0118832B60
:1016F000C117032C8117832C4117032D0117832D4C
:10170000C1161D618280EF30B06B0344B1019C12A1
:1017100026950A043E94EF60D0498347B1019812A0
:101720002320A4F68A07BA9703A507F6EF60D054E2
:101730002A86AE864A85EF7070468347B1019812BB
:101740004E858A07BA9783A507F6EF50906C8347BA
:10175000B101AA89850793F7F70FA30DF100CDBD5D
:1017600037140040A3010404F2479812F24CFD170D
:101770008A07BA9703A507EC83250D008A0CBA9C4B
:10178000EF60005C83A50900AA8D8840EF60405B94
:10179000AA856E85EF50F067F247981223A0ACEC53
:1017A0008A07BA9703A507ECEF60104D2A86AE862C
:1017B00017B5000013050595EF70503EA301040412
:1017C000F2479812F24C8A07BA9703A507EC8325D3
:1017D0000A008A0CBA9CEF60A056EF60F04903A69D
:1017E0000A0083A64A00EF50401CEF60B053F24756
:1017F000981223A8ACF08A07BA9703A507F1EF6007
:10180000B0472A86AE8617B500001305A590EF7085
:10181000F038A3010404F2479812F24C8A07BA97F1
:1018200003A507F183250B008A0CBA9CEF60405199
:1018300083A50B00EF60801483250900EF60405002
:10184000F247981223A0ACF68A07BA9703A507F6C9
:10185000EF6090422A86AE8617B500001305858D8D
:10186000EF70D033A3010404F247981283250C00D3
:101870008A07BA9703A507F6EF60C07597B700000F
:101880009387C7828C43EF60A04B97B70000938784
:1018900027828C43EF60C04AAA8CEF60F03D2A8615
:1018A000AE862AC417B500001305C58A2EC6EF7090
:1018B000F02EA3010404B247224797B50000938598
:1018C000A58ABE863A8613854114EF70904205477B
:1018D000C146138641149305000213056003EF10FF
:1018E000C0260145EF102003832509006685EF60BF
:1018F0002045EF60B02693150501C1810545EFF045
:10190000FF83F24785073ECE7DBB13850181828030
:1019100079714ECED149B309350322D426D24AD0AB
:1019200052CC56CA5AC85EC606D6001897F4FF1F96
:101930009384C4F1A69903A989002A8AAE8B9317D0
:101940001900BD07C19B3301F14083A7C900B28ACA
:101950000A8BB1C30A86D6855E858297635A0504D1
:1019600003D6090097B500009385058B17B50000D5
:101970001305C58AEF709022FD57130104FDB25084
:101980003E85225492540259F249624AD24A424B4D
:10199000B24B456182804A8681450A85EFE0FFF5BA
:1019A0004A8663D32A015686DE855A85EF60305C0D
:1019B000D147330AFA02DA85D294904403D5040061
:1019C000EF3060608147E35A05FA03D6040097B50B
:1019D00000009385658417B500001305E58559BFA0
:1019E0001DCD411106C683C701859DE317A60000E2
:1019F0001306067897B500009385058217A50000A9
:101A00001305457AEF7090197D55B24041018280EF
:101A1000214693850199EF6090550145FDB77D55AD
:101A2000828019E17D558280411122C406C683C798
:101A300001852A8485E717A600001306667497A51A
:101A400000009385657D17A500001305A575EF704F
:101A5000F0147D55B240224441018280AA8521467E
:101A600013850199EF60504E75D52146A285054535
:101A70004535E34005FE2146A28513850199EF60B7
:101A8000104F0145C1BF15CD83C701858DE74111B9
:101A900017A600001306067097A500009385C5776A
:101AA00017A500001305057006C6EF70300FB24091
:101AB0007D554101828083C7C1982300F50001450F
:101AC00082807D55828003C701858147631E070C94
:101AD000011106CE22CC26CA4AC84EC652C456C2EE
:101AE000EF308016FD576340050A1306C003814599
:101AF0001385C198EFE07FE0D1472386F19889678D
:101B00009387075823A8F198A147238AF19817F4DF
:101B1000FF1F1304A4D317F9FF1F1309E9D697A4D5
:101B200000009384646F97A900009389296D17AA18
:101B30000000130A6A6897AA0000938A6A6A104430
:101B40004C4003550400EF30500B634AA004035689
:101B50000400A68539E15285EF70500410444C40D2
:101B600003550400EF302046635B05020356040072
:101B7000A6855685EF7090025104E31224FD854737
:101B80002388F1848147F2406244D2444249B249F9
:101B9000224A924A3E85056182804E85E1BF1C48FB
:101BA000E1DF22858297C9BF3E8582809387819C31
:101BB0001387819D98C31387A19ED8C31387C19FA4
:101BC00098C71387E1A0D8C7014582800CC12322A2
:101BD00005002324050023260500014582804111CC
:101BE00022C426C206C62A84AE8499C58347E5006E
:101BF000B384F500C204C1801C40A685228582976B
:101C000089476303F50081EC2322040023240400A8
:101C100023160400B24022449244410182800347CB
:101C2000F4005C4023169400BA971CC4E5B72E86D6
:101C3000814575B7105141055DB7C1676976814629
:101C4000FD1705061397060141836364B7003E85BF
:101C500082803307D50003470700B98F214713F867
:101C60001700858363050800B18FC207C1837D1704
:101C70001377F70F6DF78506F1B70CC118C523066A
:101C8000F50050C123200502B685410581B70C51EE
:101C9000410571BF5C41411122C426C24AC006C63B
:101CA0002A84AE84328991C3829789452285593727
:101CB000814709C913E58700B24022449244024992
:101CC00041018280184C93E404F83E85230097007C
:101CD000184CA3002701CDB75D7186C6A2C4A6C269
:101CE000CAC04EDE52DC56DA5AD85ED69547638FAC
:101CF000F6000D464537B640264496440649F2594B
:101D0000625AD25A425BB25B616182809387F5FF6F
:101D100093F7F70F0D47AE8A6362F71883443600D6
:101D2000034746002A89A204D98CC204C184939B2C
:101D3000040193DB0B01638D0B009396170017D7FB
:101D40000000130767503697035707006373770344
:101D50000D46D6854A853D3F2A8493773500098113
:101D60001375F50371985D8C0A05137434F0418D79
:101D700059B783491600034726000946A209B3E96B
:101D8000E900416733077741E34737FD17D7000084
:101D90001307074C3E97034A070017D700001307A5
:101DA000674ABA9783C7070002CA231D01003EC8CD
:101DB000230EB100014BB3876901231CF100832777
:101DC000090030000C084A85829719C1114651B7A5
:101DD000224641F2050B420B135B0B01E39D6BFDA9
:101DE000860463050A0093047B008D8493F4F40F4A
:101DF000938524004A853D3D45E58327890123805D
:101E0000570183278901A3809700814713F7F70FB4
:101E10006361970689473ECA814A854BB38759015A
:101E2000231CF1008327090030000C084A85939495
:101E30000A018297C180832789018356C100850AE0
:101E400063040A0413D734009D880907B3949B00E8
:101E5000BA97E20403870700E1849DC2D98C2380EE
:101E6000970093970A01C183E3EA67FB0145814725
:101E7000D5BD032789013E9723010700850779B760
:101E800093C4F4FFF98CE1BF13971A00BA9713D7E4
:101E900086002380E700A380D700E1B70D45C1BFCE
:101EA0000945F1B7397106DE22DC26DA4AD84ED66A
:101EB00052D456D25AD09547638EF6000D46D93B80
:101EC000F2506254D2544259B259225A925A025B89
:101ED00021618280AA842E8A91476383D500854739
:101EE000834A16000347260003493600A20AB3EAD4
:101EF000EA00034746002209C20A3369E9004209A1
:101F000093DA0A4113590941139B0A0193190901F4
:101F10001147135B0B0193D90901639AE7006388AA
:101F200009004167130707F00D46639AE902054768
:101F30003ACA3EC8231C610191464E876394D7007C
:101F4000333730019C403000231DE100230E410156
:101F50000C0826858297114619E122460DC2D285CA
:101F600026850D3B2A849377350009811375F50387
:101F700071985D8C0A05137434F0418D91B78D47CB
:101F80003ECA9C400C0830002685829795452685E0
:101F9000553105E59C4C135B8B0093D98900238058
:101FA00047019C4CA3806701238157019C4CA3816E
:101FB000370123822701814765BF0945EDBF1D71A8
:101FC000A2CC5EDE86CEA6CACAC8CEC6D2C4D6C24F
:101FD000DAC062DC66DA6AD86ED695472A84AE8BA0
:101FE00063E5D7020D46DE8522856D31F6406644F5
:101FF000D6444649B649264A964A064BF25B625C8D
:10200000D25C425DB25D25618280BD47328A6380C9
:10201000F50C054D9307B00703475A0061D7E91641
:10202000E312D7FC83443A0083464A00A204D58CCD
:10203000C204C184139B0401135B0B01E3040BFA7C
:10204000E3E267FB914693171B006315DD009307DE
:102050007B008D87E318F7F803491A0083472A00AD
:10206000094622093369F9004209135909419319B4
:102070000901C16793D90901B3876741E3C537F700
:102080008547930C6A006AC83ECA230E7101E68D2B
:10209000014C1147B3878901231CF100631FED0236
:1020A00093573C00C207C183D29783C767009376DA
:1020B0007C00B3D7D740858B231DF1001C40300036
:1020C0000C0822858297114705C1114629BF114D81
:1020D0009307007B91B7568C75BF83C70D0083C6ED
:1020E0001D00A207D58FC9BF2246E31E06EE930A44
:1020F0001C00C20A93DA0A01890DE31E5BFD8D47BD
:102100003ECA014B914DB3876901231CF100631650
:10211000BD0593573B00C207C183D29783C76700B1
:1021200013777B00B3D7E740858B231DF1001C405C
:1021300030000C082285829793071B00C207C183D9
:10214000890C631A6C0195452285ED34814709CDD0
:1021500013E5870061BD3E8B7DB783C70C0003C7C5
:102160001C00A207D98FD1B7184C93D9890093DAF4
:102170008A0023007701184C3E85A3003701230114
:102180002701184CA30157012302970085B55D7103
:1021900086C6A2C4A6C2CAC04EDE52DC56DA5AD8DF
:1021A0005ED662D466D26AD09D476382F6020D463F
:1021B000D534B640264496440649F259625AD25A5A
:1021C000425BB25B225C925C025D61618280034A89
:1021D000160083472600054C220A336AFA00420A99
:1021E000135A0A41931B0A011C4193DB0B01AE8A6F
:1021F000034D460083493600834C66000349560070
:10220000230EB10062C802CA231C7101231D010004
:1022100030000C08AA84829719C1114619A02246E1
:102220000DC2D6852685BD342A8493773500098171
:102230001375F50371985D8C0A05137434F0418DA4
:102240008DBF89473ECA9C40A20930000C08B3E903
:10225000A90126858297C209220993D909413369C8
:1022600099018357C100139B09014209135B0B01BC
:102270001359094113C7F9FFB377FB003377E9001E
:10228000D98F231DF1009C4062CA30000C082685BE
:10229000829741F5224651F68D473ECA9C400C0874
:1022A0003000268582979D452685EFF0BF980DED7D
:1022B0009C4C93DB8B00135B8B00238057019C4C61
:1022C000A3807701238147019C4CA381670123826E
:1022D0003701984C93170901C183A183A302F7002A
:1022E000230327018147B9B70945EDBF2E888348ED
:1022F000C50083C50500B286814713970701418356
:102300006365170105466FF0FF981845139637006F
:102310008507329703460700E311B6FE0323470003
:10232000428602839387C6FFC207C1831307C00F8B
:102330006368F70C011152C4138AE6FF4EC6AE89DA
:1023400093150A0122CC26CA4AC806CE56C2328943
:10235000AA84C18132854A9A3684834A0600EFF006
:10236000DF8D83471A0003470A00A207D98F631E37
:10237000F50863860A001305D002639F590393078B
:1023800030107514239FF4001376F40F9305190091
:102390002685A93F9377350085E39357250093F76A
:1023A000F70399EB83D7C401014491C7639F0A00E7
:1023B0002685EFF0DF8D2285F2406244D244424907
:1023C000B249224A924A056182801387C7FF4207B9
:1023D00041839306C00F13654400E3EFE6FCC84851
:1023E0009385E7FFB304B500C20523003501C18121
:1023F000EFF0BF842380A4002181A380A40065BFE7
:1024000005450A0513651500828021450A051365F7
:1024100015005DB7B14763EAA70097A7000093874F
:1024200067E30A053E950841828017A50000130561
:10243000A5E5828089E52322050001458280930776
:10244000001063F6B70023220500094582801306B9
:10245000861550C1DDB79C4123200600094708516D
:102460006383E7026367F7000547638CE700014574
:1024700082801147638BE7002147E39AE7FE6FE014
:102480003FC26FE03FD96FE0BFCC6FE01FB5411195
:10249000956706C622C4938707B063EEA7002A8417
:1024A000EF30C02895473305F50233558502B24019
:1024B000224441018280EF306027B7470F009387A5
:1024C00007243355F5029307E02E3305F502C5B70F
:1024D000411106C622C4B727004003C70700814642
:1024E000118B01CB03C7070085461377B70F2380F5
:1024F000E700138401A2384089476300F70663614F
:10250000F7048D476303F70689C608544937EF304F
:10251000E02B784885476311F702B727004083C74F
:102520000700918B89E708549D37EF30202A83C735
:1025300011858507A388F184B2402244410182803D
:1025400023A0F1A67C4823A601A43307F400850745
:10255000230CA70423AAF1A645BF23A601A47C4807
:102560001307F00FE342F7FACDB723A601A485477E
:102570002388F1A451BF411122C48D452A8413053B
:10258000000206C6EF30C005371700408327870AD0
:102590008545414593E707022324F70AEF304004BD
:1025A000EF30E02E0854EF30602B0145EF30603102
:1025B00005459545EF308032B2402244B7E700E050
:1025C000114723A2E710014541018280FD5735C51F
:1025D0006355B006371700408327C70C4111B70673
:1025E000040006C6D58FC2052326F70CC181EF3043
:1025F0008031374700408347B7C093F7F70FE5FFB7
:10260000834757C093F70704FDD797A5000093852C
:1026100025F717A5000013052501EF60305837177F
:1026200000408327870CB240B7060400D58F2324CF
:10263000F70C81473E85410182803E8582800111F1
:1026400022CC26CA2A84D144280006CE02C402C65F
:10265000A3039100EFF0CFB813057100EFF0AFC204
:102660008347710099E3A3039100A24603467100DA
:1026700097A50000938545F817A50000130505F8F8
:10268000EF60D051130600268145138501A2EFE0CB
:10269000CFA6834771002382F1A4A24723A4F1A40B
:1026A00097070000938767DB23A0F1A219C4414676
:1026B000A285138541A6EF60800B138401A297D7F2
:1026C000000083C727B917E7FF1F1307E71B97060B
:1026D0000000938666D60146970500009385E5D7EE
:1026E0002285EFF08FD99377350099C77D55F24059
:1026F0006244D2440561828009819377F5037D5558
:10270000FDF7228523A081A4BD350145CDB7B337A0
:10271000A000A388F1A409CD411106C6EF20D05C2A
:10272000B240938701A288DFCCDF0145410182805E
:1027300001458280011106CE2AC6A3880184EFE0FC
:10274000FFC4EFE0FFA4EFE07F8F3245CD3D635E35
:102750000500F24097A50000938505EA17A5000043
:102760001305C5E705616F607043B727004003C7D5
:102770002700C166136717002381E70037E700E0F1
:102780002320D71003C707001377B70F2380E70074
:10279000F24005618280411122C4138401A23840B5
:1027A00006C626C29147631FF708EF20F0531306B1
:1027B000803E8146EF30A01723ACA1C683C701A598
:1027C000D9E783564405138681A783C541A4228592
:1027D000913E09819374F50399E483D5C1A3B1C9EE
:1027E0004848ED33B9A026853531AA86268697A5B7
:1027F0000000938565E017A500001305E5D9EF609B
:10280000F03997A50000938525DF17A50000130573
:10281000E5DAEF60B038035644059146938581A709
:1028200017A50000130545DDEFE0CFEDAD47E396BA
:10283000F4FA238801A423A601A423AA01A68547AC
:1028400023A0F1A6B240224492444101828017A500
:102850000000130565D7EF607034E1BF83C711A591
:1028600085CB938701A2885FCC5F411106C6EF201C
:10287000504891E58567938777BB63F9A700814549
:1028800013056008A38801A4EFE03F91B240410125
:1028900019B737170040ADC18327870CB70608006A
:1028A000D58F2324F70C2147B717004083A6C70A0A
:1028B00093E6160023A6D70A93168501E18663D511
:1028C000060483A6870A93E6260023A4D70A83A6D4
:1028D000870A7D17060593E6160023A4D70A137707
:1028E000F70F1375F50F79F303A7870CB7060800E8
:1028F000558F23A4E70C82808327C70CB7060800F6
:10290000D58F2326F70C45B783A6C70A93E6260082
:1029100023A6D70A6DBF01E583C72185B5C3011181
:1029200022CC26CA52C406CE4AC84EC6938401C8D9
:102930001304000B130A800B81452285993F8145C2
:102940000145813F81454145A937A6891309000802
:1029500003C5090085457D192D3FA109E31A09FE2C
:1029600005041374F40F8504E31844FDF240624437
:1029700023890184D2444249B249224A05618280B6
:1029800082800147138601C8930500082145B306DC
:10299000E600814785072380060093F7F70FA1061D
:1029A000E39AB7FE0507E314A7FE85472389F18460
:1029B000014595B793178501E18763CD070293071A
:1029C000F00363E9B70213F775008547B397E70093
:1029D0000E0513D73500938501C8AA95BA9593F7CC
:1029E000F70F03C7050001CAD98F2380F50085477B
:1029F0002389F184828093C7F7FFF98FFDB71D719A
:102A0000A2CCD2C462DC66DA86CEA6CACAC8CEC65A
:102A1000D6C2DAC05EDE6AD86ED6A1472A8CAE8CEA
:102A200013DA16001944638DF60013F4760033347C
:102A3000800093D736003E9433048A021374F40F57
:102A4000930406FE93F4F40F93074002B387F40255
:102A5000B1491946E28B014BA14A3EC6B389340302
:102A6000939744003EC8933717003ECAB384C4020C
:102A70001376FB0F63618602F6406644D6444649EE
:102A8000B649264A964A064BF25B625CD25C425DCE
:102A9000B25D256182806391560733069B0097A73C
:102AA00000009387E7EF3E96834D060013898C0064
:102AB0001379F90F668D13F61D003DCE3A86EA852F
:102AC0005E8536CE3ACCFD356247F24693081D004E
:102AD00013FDF80F93DD1D00E31FA9FD93871B0075
:102AE00093FBF70F6388560133868B4163144601CD
:102AF000CA8CE28B050BADBF31466399C600330625
:102B00003B0197A700009387270C71BF4146639A4A
:102B1000C600C2473306FB0097A700009387075201
:102B200059B76146E39AC6F4B2473306FB0097B73C
:102B300000009387A7AF85BF5246EA855E853ACEEF
:102B400036CC8D3D7247E24651B7797152CC130AAB
:102B5000000422D426D24AD04ECE56CA5AC85EC6E7
:102B600062C466C206D62A84AE84B2893689BA8B1C
:102B700013DB1600930AE005214C930CE007330A9F
:102B8000DA4003C60900930706FE93F7F70F63FFC9
:102B9000FA00B250225492540259F249624AD24A7F
:102BA000424BB24B224C924C456182805E87CA8672
:102BB000A6852285A935631F890119041374F40FB2
:102BC00063F88C00CA94E3469AFC93F4F40F014432
:102BD000850945BF5A94DDB7797126D24AD052CCC7
:102BE00056CA5AC862C43E8B06D622D44ECE5EC6A2
:102BF000A147AA842E8AB28A3A8C09496303F70056
:102C0000014993571C00FD163E9913F4F60F9309E2
:102C1000F00FA94B63183405B25022549254025954
:102C2000F249624AD24A424BB24B224C4561828001
:102C300033067603FD1793F7F70FE39B37FF5A87A9
:102C4000E28633D6CA023376760305E21306000322
:102C50002685D285CA947D145D3393F4F40F1374E2
:102C6000F40F4DBFA2870546F1B713060603CDB793
:102C70001D71A6CA93F4760093D73600B334900042
:102C8000BE94CEC693098004B384D40293179600F1
:102C90003EC6931776003EC893175600A2CCCAC80A
:102CA000D2C4D6C2B309360366DA6AD86ED686CEE7
:102CB000DAC05EDE62DC2A8AAE8A3ECA2A84014914
:102CC00097AC0000938C4CA117AD0000130DCD966E
:102CD000933D170013160901418263619602F64085
:102CE0006644D6444649B649264A964A064BF25BA4
:102CF000625CD25C425DB25D25618280C147639BAC
:102D0000F604D2473306F9006A96034C0600138393
:102D10008A00137BF30FD68B13761C0025CE3A86E0
:102D2000DE85228536CE3ACC71316247F246138871
:102D30001B00937BF80F135C1C00E31F7BFD050455
:102D40001374F40F33064441630FD604568B050900
:102D5000DA8A49B761466396C6003306390166963A
:102D60006DB713060002639BC600C2473306F90025
:102D700097A700009387C79A3E9641BF13060004A9
:102D8000E39FC6F4B2473306F90097A70000938784
:102D900027A1DDB76E86DE8522853ACE36CC19397D
:102DA0007247E24669B752845DB7411191450545C6
:102DB00006C622C4EF20D00291450945EF205002FB
:102DC000371400408327840A91453705100093E7A4
:102DD00027002324F40AEF20100B8327840C3707E5
:102DE00010009145D98F2324F40C37050800EF20FB
:102DF00090098327840C37070800B240D98F232419
:102E0000F40C22448D45114541016F20D00741113A
:102E100006C622C426C237140040413F8327C40C93
:102E2000B70410001305800C93E747002326F40C29
:102E30000327C40C458F2326E40C97D0FF1FE7809F
:102E4000E05B8327840C81451305E00AC58F2324AA
:102E5000F40CEFF01FA481450145EFF09FA38145DD
:102E60004145EFF01FA3814513050004EFF07FA259
:102E7000814513051008EFF0DFA181451305F00C23
:102E8000EFF03FA181451305000AEFF09FA08145B7
:102E90001305000CEFF0FF9F81451305600AEFF06A
:102EA0005F9F81451305800AEFF0BF9E81451305A2
:102EB000F003EFF01F9E81451305300DEFF07F9D6D
:102EC00081450145EFF0FF9C81451305500DEFF062
:102ED0005F9C814513050008EFF0BF9B81451305FA
:102EE000900DEFF01F9B81451305100FEFF07F9AB7
:102EF00081451305A00DEFF0DF9981454945EFF0BD
:102F00005F9981451305B00DEFF0BF98814513051A
:102F10000004EFF01F98814513050002EFF07F9742
:102F200081450945EFF0FF9681451305D008EFF084
:102F30005F9681455145EFF0DF9581451305400AC5
:102F4000EFF03F9581451305600AEFF09F9422440E
:102F5000B240924481451305F00A41016FF07F931E
:102F600041110547C1460146C145014506C6093321
:102F70000547C1460546C1454945DD390547C146B6
:102F80000946C14513054002E5310547C1460D46D6
:102F9000C14513056003E9390547C1461306A0037F
:102FA000C14513058004EFF09FA50547C1461306F0
:102FB0004004930500020145EFF07FA40547C14698
:102FC00013065004930500022945EFF05FA305475F
:102FD000C14613065004930500025145EFF03FA28D
:102FE0000547C14613060005930500027945EFF039
:102FF0001FA10547C1461306A00393050002130550
:103000008002EFF0DF9FB2400547C1461306D004AF
:10301000930500021305A00641016FF05F9E411168
:1030200006C622C423AA01842A84EF202070B74751
:103030000F00938707243355F50233058502EF20EF
:10304000207A138741851C43FDDF372700408347E3
:103050000740014593F7B70F2300F740B2402244E1
:1030600041018280411122C426C206C64AC013040F
:10307000C003B714004083A7440C1397370163477C
:1030800007020144B71400401309000F83A7440C42
:1030900013973701635D07029307B003014563C2CD
:1030A000870217B500001305253709A805457D14CB
:1030B000BD3771F017B5000013054532EF600040D1
:1030C0000545B2402244924402494101828029458B
:1030D0002904B137E31C24FB17B500001305C531E3
:1030E000F1BF41118D45056506C622C426C23714BD
:1030F0000040EF2040590327C40C85641305401F8E
:10310000458F2326E40C213F8327840CB24085455C
:10311000C58F2324F40C22449244056541016F209D
:103120008056411106C622C46D3F2D3F9377F50F9F
:103130002A8499C717B500001305C542EF6000380F
:103140001305000FE93D1375F40FB240224441010D
:103150008280411106C63727004083472740856695
:103160001305400693E717002301F740B7E700E097
:103170003707000123A0E710371700408327870C8B
:10318000D58F2324F70C613D8D450565EF20A04FB9
:10319000B240410179B741114AC08D452A89056580
:1031A00022C426C23714004006C6EF20C04D0327B4
:1031B000C40C85641305C003458F2326E40C630B00
:1031C00009003D45A93D8327840C13052003C58FC5
:1031D0002324F40CA935371700408327870C224499
:1031E0008566B24092440249D58F2324F70C0945E5
:1031F000410135B5411122C426C206C6AA84214424
:103200007D1413F514001374F40F713785846DF871
:10321000B240224492444101828041118D450565AE
:1032200006C622C426C24AC0B7140040EF20A045FB
:1032300083A7C40C05690945B3E7270123A6F40C4D
:10324000F93B83A7840C85450565B3E7270123A4D3
:10325000F40CEF2040431545D93303A4440C3374D8
:10326000240119E81145653B83A7440C13973701E6
:10327000634507007D5429A005441305C003453369
:103280002285B24022449244024941018280411188
:1032900022C426C206C6A14401440580BD3F09C51B
:1032A000136404F81374F40FFD1493F4F40FF5F49D
:1032B0002285B2402244924441018280411106C6D7
:1032C00022C4A13F2A84913F06051375E51F418D55
:1032D000B24022441375F50F41018280011197B766
:1032E00000009387A70E26CAAA84884322CC4AC826
:1032F0004EC606CE054497B900009389E9081D49DA
:1033000093F7140099C793172400CE978C43EF408E
:10331000403005048580E31524FFEF50E01597B792
:1033200000009387270B9043D443EF300068EF50A1
:10333000601FF2406244D2444249B2490561828032
:10334000011122CC26CA4AC84EC6AA8406CE014420
:103350001305000097B900009389C904214993F728
:10336000140099C793172400CE978C43EF40602A2E
:1033700005048580E31524FFF2406244D2444249AB
:10338000B24905618280011122CC26CA4AC84EC6C4
:1033900056C25AC006CE52C4AA8917B900001309F2
:1033A000690001449D44054BFD5A032AC901CE859D
:1033B0005285EF403010634CA000B3179B004E8540
:1033C000D2855D8CEF4010411374F40FAA89FD146F
:1033D0007119E39C54FD2285F2406244D244424973
:1033E000B249224A924A024B05618280011106CEFF
:1033F00022CC26CA4AC84EC656C25AC052C4EF5042
:10340000A00797B700009387E7FB9043D44317B911
:103410000000130969F79544EF302059EF508010F0
:1034200097B70000938787FA8C430144054BEF4020
:10343000703AAA89FD5A032A8901CE855285EF4048
:103440007007634CA0004E85D285EF40B038B317AB
:103450009B005D8CAA891374F40FFD147119E39C11
:1034600054FD2285F2406244D2444249B249224A84
:10347000924A024B05618280011106CE22CC26CAF7
:103480004AC84EC62E89B289EF40801197B7000016
:10349000938747059043D443EF20F07597B700001A
:1034A0009387C7049043D443EF30B01B2A86AE867F
:1034B000EF2070012A844E85AE84EF40F07B2A868F
:1034C000AE862285A685EF30404E2A844A85AE849A
:1034D000EF40907A2A86AE862285A685EF20A07ED0
:1034E000EF504004F2406244D2444249B24905617F
:1034F00082808146AA9581476314B5003E8582800B
:1035000005050347F5FFB98F214733C6D700058A64
:10351000858309C693C7C7F893F7F70F7D1713770D
:10352000F70F85827DF3C9BF1171EAC91306300612
:103530002A8D8145E808A2DDA6DBCAD9DAD1EEC71B
:1035400086DFCED7D2D5D6D3DECFE2CDE6CB0149CA
:10355000EFD0AFBA81440144054BA14DEFF07FBCE1
:10356000631105104155931C3900EFF0BFC8EA9C68
:10357000930BC101014A131C3A00137CFC0FDE8936
:10358000854A2D3B0D8989478580631FF5040145D8
:10359000EFF07FC023800900850AA5478509E392E3
:1035A000FAFEB3874C0123809700050AA10BE314B0
:1035B000BAFD9C01A29783C7C7F9050989C793077C
:1035C0004006E31DF9F81375F90FFE506E54DE54F2
:1035D0004E59BE592E5A9E5A0E5BFE4B6E4CDE4C17
:1035E0004E4DBE4D11618280631A65010545EFF0B5
:1035F0009FBA93E404082380690179BF51FD9C01BF
:10360000A29703C7C7F9B3075C0193F7F70F63717C
:10361000F7023EC60504EFF01FB89C011374F40FC7
:1036200033878700B24723800900230EF7F8ADB730
:1036300063FCE70003C5090093177500DD8C93F464
:10364000F40FEFF05FB589BFE398E7F405457D140B
:10365000EFF07FB493E40408238069011374F40F3E
:1036600025BF01459DB779711385C11506D622D4B2
:103670004ECE52CC56CA5AC85EC662C426D24AD072
:103680006535AA85AA8917B50000130525EAEF500C
:10369000F050014417BA0000130A4AEB938A8115CF
:1036A00017BB0000130B8BEBA14B17BC0000130CD6
:1036B000ACDB634E3401B250225492540259F249A9
:1036C000624AD24A424BB24B224C45618280A2856B
:1036D000528593143400EF50704CD694014983C541
:1036E00044005A850509EF50704B8504E31979FFB2
:1036F0006285EF50B05C05046DBF011126CA4EC64D
:1037000006CE22CC4AC8B7170040A3810704AA8975
:10371000AE84EFF01FA115E92A8413055005EFF0E0
:103720007FAD8E042149B3079400CE97038507002F
:103730000504EFF03FACE31824FF0545F240624476
:10374000D2444249B249056182800145C5BF411159
:1037500022C42A841385C11506C626C2793F1305E3
:10376000B0FAEFF03FA99304F40063189400B2405C
:103770002244924405454101828005040305F4FF7B
:10378000EFF05FA7DDB7411122C42A841385C1156C
:1037900006C626C29D371305B0F8EFF0BFA5930407
:1037A000F40063189400B24022449244054541015C
:1037B00082800504EFF0BFADA30FA4FEDDB70111B9
:1037C00026CAAA840A8522CC06CE4AC86D3F2A841E
:1037D00019CD0349E100B9450A85EFF09FD1631F78
:1037E000A9008347910093F7F7032380F400228513
:1037F000F2406244D2444249056182800144C5BF1F
:10380000011122CC2A841305F10006CE4D3F034559
:10381000F100EFF0BFAC08C0F24062440561828065
:10382000011126CAAA840A8522CC06CE4AC8A13F25
:103830002A8405C90349E100B9450A85EFF07FCB29
:103840006318A902034791008D4719833387E74026
:103850009307F00FB3D7E74003474100F98F238068
:10386000F4002285F2406244D244424905618280DC
:103870000144C5BF011122CC2A841305F10006CEF4
:1038800045370345F100EFF0BFAB08C0F24062449A
:1038900005618280011122CC2E84B28506CE32C60B
:1038A000D13F32462285B285A13FF24062440545B0
:1038B00005618280797126D2AA840A8522D44AD0F1
:1038C00006D64ECE2E89C1352A841DC18349E1001A
:1038D000B9450A85EFF0FFC16394A90203453100A1
:1038E0009D88CA856199458DA301A1000A8585350A
:1038F0002285B250225492540259F2494561828085
:103900000144FDB779714AD04ECE2E89AA89B2857D
:103910000A8522D426D206D652CCB284AD352A846A
:1039200015C5034AE100B9450A85EFF09FBC63184D
:10393000AA02834591000A852302310193F5F5031C
:10394000B3E52501A304B100A68511352285B25047
:10395000225492540259F249624A456182800144DC
:10396000F5B7011197B70000938747B72EC68C4370
:1039700006CEEF30104AEFF01FA1937705FE3246D6
:10398000814589CF937705FC9305000481CB93771C
:1039900005F89305000C99E393050008A537F2405C
:1039A000054505618280797126D2AA840A8522D4D0
:1039B0004AD006D64ECE2E89EFF0FFDC2A8405C50C
:1039C0008349E100B9450A85EFF0BFB26395A902CA
:1039D00083479100CA850A8593F707FCDD8CA30411
:1039E0009100EFF0DFD62285B25022549254025952
:1039F000F249456182800144FDB7411106C622C4E7
:103A00002E84EF40702797B700009387A7AC9043B0
:103A1000D443EF20402BEF40F030EFF03F9DA285E4
:103A20005937B2402244054541018280011106CE3A
:103A300022CC26CA4AC84EC632842E89AA899784C7
:103A400000009384A465EF30D03C8C40EF40402FC1
:103A5000A285013FCE854A85EF40C0578C40EF409C
:103A6000202EA285593FF2406244D2444249B249D5
:103A7000054505618280411122C42A841385C11540
:103A800006C6EFF09FC71305E004EFF0AFF603059D
:103A90000400EFF02FF603051400EFF0AFF5030577
:103AA0002400EFF02FF5B240224405454101828009
:103AB0004111AA851385C11506C6EFF01FC4B717BB
:103AC000004013056006A3810704EFF0AFF2B24097
:103AD0000545410182804111AA851385C11506C69D
:103AE000EFF0BFC113054004EFF0CFF0B240054541
:103AF000410182804111AA851385C11506C6EFF0E8
:103B0000DFBFB71700404145A3810704EFF08FEEF8
:103B1000B240054541018280411122C42A841385A7
:103B2000C11506C626C2EFF05FBDB7170040A381DE
:103B300007041305E0FBEFF0EFEB93049400631828
:103B40009400B2402244924405454101828005041C
:103B5000EFF0EFF3A30FA4FEDDB7797126D24AD0C0
:103B6000AE842A89B285480022D406D64ECE6D375F
:103B70002A840DC18349C100A1454800EFF07F9719
:103B80006392A9028347B1002300F9008347A10093
:103B90002380F4002285B250225492540259F249F3
:103BA000456182800144FDB7797122D44AD02E84C8
:103BB0002A89B285480026D24ECE06D652CCB2898A
:103BC000A13FAA840DC5034AC100A1454800EFF0FA
:103BD0005F926317AA028347A100CE852800F19B5C
:103BE0005D8C0D9833648900230581006935B250DE
:103BF0002254268502599254F249624A45618280D4
:103C00008144F5B7797126D24AD0AE842A89B2852B
:103C1000480006D622D44ECE013711E90144228550
:103C2000B250225492540259F24945618280B7172A
:103C30000040A38107048349C1002A84A1454800AC
:103C4000EFF03F8BE39CA9FC834751000347410001
:103C5000A207D98F2310F900834771000347610041
:103C6000A207D98F2390F4005DBF411122C42A849A
:103C70001385C11506C626C2EFF03FA81305C0FD87
:103C8000EFF04FD79304640063189400B2402244CD
:103C900092440545410182800504EFF04FDFA30FF8
:103CA000A4FEDDB7011126CAAA84280022CC06CEC4
:103CB0006D3F2A841DC1B7170040A38107048345C7
:103CC00091008347810017B500001305E58CA2051C
:103CD000DD8D2390B400EF50606C2285F240624489
:103CE000D24405618280011122CC26CA1384811539
:103CF000AA840E054AC806CE4EC63309A4008349DD
:103D0000B90011059D452295EFF0AFFE639FA90212
:103D1000894717A500001305257523ACF114EF5052
:103D2000E079A68517B5000013058587EF50006779
:103D30000C406244F240D2444249B24917B50000F7
:103D40001305858805616F50606563940902834798
:103D5000A90085E3854717A500001305E57023AC8E
:103D6000F114EF50A075A68517B50000130505875F
:103D700075BFF2406244D2444249B2490561828033
:103D8000011126CAAA84480022CC06CE4AC8EFF008
:103D9000BFD82A840DC10349C100A1454800EFF0F6
:103DA0004FF56311A9028347510003474100A20761
:103DB000D98F2390F4002285F2406244D2444249D4
:103DC000056182800144C5BF011122CC06CE26CAFE
:103DD0002A8423170100EFF01FD025C93D45EFF0DD
:103DE0000FA4A2851305E100613F0315E100EF4038
:103DF000405C978700009387A72B8C43EF3050746B
:103E0000AA84EF4060672A86AE8617A500001305D6
:103E1000E575A285EF50805817A500001305C5640D
:103E2000EF50C0692685EF40605393150501C181AD
:103E30000145EFD0AFB01305E03DEFF04F9EF240EB
:103E40006244D24405450561828017A50000130530
:103E5000E573EF50A054C5B7411197A700009387B1
:103E6000676A26C2AE848C4322C42A8426854AC04F
:103E700006C63289EF301064634CA002A285268505
:103E8000EF30F05A6356A002930500002285EF3010
:103E9000105A634F0500A2852685EF40A01397A70F
:103EA0000000938767668C43EF30D0606353A002B5
:103EB00097A500009385856517A500001305C566C5
:103EC000EF50C04D0145B2402244924402494101A5
:103ED00082804A86A6852285EFF05FB54A86938563
:103EE000414913850149EFF0FF9A0545E9BF93F772
:103EF00075000111937535003E8506CE22CC3284C3
:103F0000EFF09FCA22866C002800EFF01FC5F24038
:103F1000624401450561828059711385C115CAD07B
:103F2000CECED2CCD6CA86D6A2D4A6D2DAC8DEC627
:103F3000E2C4EFF06FDFAA8902DE138A811597AA27
:103F40000000938AAA4E1389C147F25763CE370106
:103F5000B650265496540659F649664AD64A464BF8
:103F6000B64B264C656182807255B7140040EFF065
:103F70009FD77256A14509459D3F03270A008547F3
:103F8000A38104046312F724725683A50A00130563
:103F90000000EFF07FEC725493854149138501498D
:103FA0002286EFF03F8FA2850545EFF0BF90228576
:103FB000EFF05FB4630F050C3D45EFF04F862286AE
:103FC0009305A1032818EFF0FFC335C5031581033E
:103FD000EF40203EEF40404A97A70000938787516B
:103FE0009043D443EF20701C97A70000938707519C
:103FF0009043D443EF10304DEF40C0520326890167
:10400000832549012A8B0355A103EFF0EFC6A38155
:104010000404EF4060462ACC5A852ECEEF40C045BE
:104020006247F2472A86AE8617A500001305454071
:10403000A285EF50A036B71400401305E03DEFE035
:104040001FFEA381040472541545A285EFF09F86DC
:104050002286A38104049305310313052103EFF0A5
:10406000DFAF2285A3810404EFF09FA415E917A513
:1040700000001305E53EEF5060441305E03DEFE01E
:104080001FFAB7170040A3810704F25785073EDEE9
:104090006DBD17A500001305654FEF50203061BFBF
:1040A000A38104043D45EFE09FF7228693854149B3
:1040B00013850149EFF00FFE228693053103A3819A
:1040C000040413052103EFF05FA99305A103A38165
:1040D000040422862818EFF0FFB2A285A38104040D
:1040E0004818EFF03FBC19E517A500001305053887
:1040F000EF50C02AB71B0040A3810B048324490161
:10410000032C89010355A103A6856286EFF0CFB683
:104110002A8B035541036286A685EFF0EFB5A38194
:104120000B0403584103AA845A8542D6EF40C03499
:10413000834631030356A1032AD036C683462103A2
:10414000268532CC36C42ED2EF40003392573258F7
:10415000025762462AC02EC217A500001305053279
:10416000A285EF50A02397870000938727F4804310
:104170005A85A285EF30B02B6356A004A285268510
:10418000EF30F02A6350A00417A500001305C533D3
:10419000EF50C032054417A500001305E52CEF5081
:1041A000E0318547414785462286C14513052005F4
:1041B000EFE09FA20145EFE00FF6A2850145EFC0B9
:1041C0005FE965BD0144C1BF7255EFF0FFBFA38138
:1041D000040465BD011106CE22CC130760082E86AB
:1041E000630DE508636BA70013070008630CE50285
:1041F000F240624401450561828041679306A7FF52
:10420000630AD5006D17E315E5FE93C5F5FFC205FA
:10421000C18131A09965938555AAE30BB6FCEFC027
:10422000DFF7F9B799CD85476382F50297A50000BE
:104230009385453D17A500001305453DEF50001639
:1042400045BF97C0FF1FE78020135DB7280041647A
:1042500002C402C6EFD0CFF81305D4FDEFC07FF73C
:1042600042052AC41305E4FDEFC0BFF6A2473E9500
:104270002AC42800EFD0EFFAA5BF8D679387677334
:1042800005456384F500ADF50145EFE04FC88DB7F6
:10429000011106CE22CC02C002C202C402C6EFD077
:1042A000CFE697070000938727F32A840A853EC24A
:1042B000EFE04FC889450145EFC03FEE835524002C
:1042C0003145EFC09FED835544003545EFC0FFEC0D
:1042D000835584000545EFC05FEC835564000945B4
:1042E000EFC0BFEBEF108019A145EFD0EF879965C4
:1042F00041656915938555AAEFC03FEAF2406244D3
:1043000001450561828083C7818585E3411106C629
:1043100023AC018423AE0184EFF09FF7B2408547C0
:10432000238CF18401454101828001458280411145
:1043300022C43714004006C6EFE04FD2A3010404A4
:10434000EF10801A1306803E8146EF10405E93877F
:104350008185A3010404DC436383A7021304803E28
:104360003354850223AEA184394593550401EFC02F
:10437000DFE293150401C1813D45EFC01FE2B24069
:1043800022440145410182809307C00F6300F50478
:1043900063ECA70097A700009387477115C597A7FF
:1043A00000009387276F0DA01307E00F97A7000069
:1043B00093878770630AE5001307F00F97A7000043
:1043C0009387C76DE31DE5FC3E85828097A70000BB
:1043D0009387476DD5BF797122D451462A8497853A
:1043E0000000938525B4680006D6EF4040380346A8
:1043F0000400930544006800EFC07FA283471400C7
:10440000B25022543385A740133515004561828090
:10441000AE8713881700411193158500C29506C613
:104420000D486371A80297A500009385256117A523
:1044300000001305E560EF407076FD57B2403E8501
:1044400041018280B69785071307F00F637BF70061
:1044500097A500009385855E17A500001305C55F2D
:10446000D9BF2D4597C0FF1FE7808007814779D5C9
:1044700097A500009385855C17A500001305C55F0F
:104480005DBF8D4763E8B708411122C4139435001E
:104490002A940347A4004AC006C626C29307F00F19
:1044A0002A8901456304F7042E86AE8417A500000F
:1044B0001305855597A5000093854558EF40106E6C
:1044C00093060010014693958400254597C0FF1F71
:1044D000E780000115C197A500009385255617A513
:1044E00000001305E553EF40706B7D55B240224448
:1044F0009244024941018280FD572317040023168C
:1045000004002305F4008357290001458507231182
:10451000F900E9BF7D558280797106D622D426D272
:104520004AD04ECE52CCA307B1008D4763E9A7060F
:104530009387011013193500B38927012A8403C515
:10454000A90013FAF50FBE84014763054509EFF092
:10455000BFE32AC45285EFF03FE3A2462A872286B2
:1045600097A500009385854D17A5000013054555B7
:10457000EF40D06285461306F1009315840029456B
:1045800097C0FF1FE780C0F509CD97A50000938570
:10459000E54A17A500001305254EEF4030607D5712
:1045A00015A883C7A9001307F00F639EE70203D77E
:1045B000211001C77D172391E1100347F1009307F4
:1045C000E00F6314F70023928110B3872401238541
:1045D000E7000147B250225492540259F249624A0C
:1045E0003A85456182801307E00FE398E7FC914725
:1045F0002392F110D9B78D4763ECA7020E051387FC
:1046000001102A978347A7009306C00F01456382D4
:10461000D70263E6F60013B517007D158280930676
:10462000E00F6389D7001307F00F01456383E700AC
:104630007D5582808357E7001305F00F1D8D828022
:104640000D47AA87AA866369A702138601100D4841
:104650001397370032970347A7003E85630FB700D3
:104660000147638407011387170093170701C1836C
:10467000E390E6FE114582807D558280011193878B
:1046800015004AC8131985003E9906CE22CC26CAC9
:104690004EC652C48D4763E7A704B69585059307B8
:1046A000F00F36847D5563E7B704B289130A001012
:1046B000A28463748A0093040010C204C180A68699
:1046C0004E86CA85294597C0FF1FE78060E109CD66
:1046D00097A500009385853617A500001305C539F9
:1046E000EF40D04B7D5539A0058C4204418026997E
:1046F00061F00145F2406244D2444249B249224A43
:10470000056182808D4763E5A71403D6250001115A
:10471000C1671307F6FF420726CA4EC606CE22CC53
:104720004AC852C456C24183F517AE89AA8463F6BB
:10473000E70297A500009385653017A500001305D3
:10474000A53AEF40B0457D55F2406244D24442491B
:10475000B249224A924A0561828093870110931AD6
:104760003500338457010347A4009306C00F3E8AE7
:104770007D55E30BD7FC63ECE60079D797A50000E5
:104780009385C52B17A500001305C5375DBF93079B
:10479000E00FE365F7FE83C6050003C71500035865
:1047A000E40097A5000093856529A68717A500005A
:1047B00013054537EF40903E03C909008355E400D7
:1047C0004E861109CA862685EFF05FEB635B050014
:1047D00097A500009385852617A500001305C53809
:1047E0008DB78357E400035704019306F00FCA976F
:1047F000C2073A990347A400C1832317F400231882
:104800002401BA856314D7009305E00F9306F00FD7
:10481000B387F6408D4663E4F6009305C00F63004E
:10482000B7022685EFF05FCF635B050097A5000018
:104830009385C52017A500001305C53419B7B30724
:104840005A0103D7C700014505072396E700EDBDD0
:104850007D558280797106D622D426D24AD04ECE9A
:1048600002C605E217A60000130606DD97A50000A4
:104870009385C51C17A50000130585DDEF40103298
:104880003DA02A89035506008D47328463F3A702B1
:104890002A8697A60000938626DA97A500009385BE
:1048A000E51917A50000130525DCEF40302F7D55D5
:1048B00035A093143500CA9483D7C4009DE717A68A
:1048C0000000130666D797A500009385251717A546
:1048D0000000130565DBEF40702C0145B2502254F7
:1048E00092540259F24945618280AE898355240071
:1048F00091467000EFF0DFB1635F050017A600007E
:10490000130686D397A500009385451317A50000CD
:10491000130585D9A5B70356E10063033603328733
:10492000CE8617A60000130626D197A50000938512
:10493000E51017A50000130525D9EF40302685BFE7
:10494000835604000357240097A500009385050FA4
:1049500017A500001305C5DAEF4050248355240045
:10496000035504009146700023170100EFF01FD19A
:10497000635F050017A60000130606CC97A500008C
:104980009385C50B17A50000130505DBC5BD83D7AF
:10499000C4008DEB03C7A4009307C00FE31FF7F219
:1049A000835504004A85EFF0DFADE35805F297A583
:1049B00000009385A50817A500001305E5D9EF4071
:1049C000F01DF5B5FD17C207C1832396F400E396E9
:1049D00007F0C9B71307F5FF4D714207C167232CD4
:1049E00041132326111423248114232291142320FC
:1049F0002115232E3113232A511323286113232633
:104A0000711323248113232291132320A113232E16
:104A1000B1114183F51703DA411063E7E7088D47C9
:104A20002A8BAE8B328D63F34701014A23956113C4
:104A300091472398F112C167138C0110F517528921
:104A40008144E28A3EC68D479319090193D9090131
:104A500063EE3705C167FD173379F900931D3900FF
:104A6000B307BC0183C7A7001307C00F93F7D70F85
:104A70006399E70891C0814B1306C00F8145480830
:104A8000EFB0BFE783D7AA023247FD17C207C18341
:104A9000637FF71697A50000938545FA17A50000D8
:104AA00013058504EF40900FFD54BDA07D5969BFEB
:104AB00091465008A2854E85EFF09F95635B0500F7
:104AC00097A50000938585F717A50000130505CA73
:104AD000D1BF83576101B5EF8347410191073E94F0
:104AE00042044180A24783D7E700E363F4FCE694E5
:104AF00085476398F41263060D0083A70A032320F9
:104B0000FD00FD19C20993D909018D477D1963F391
:104B100037010D49E3192AF38320C11403248114BA
:104B2000268503290114832441148329C113032AF0
:104B30008113832A4113032B0113832BC112032CEE
:104B40008112832C4112032D0112832DC111716139
:104B5000828003D6A112E311F6F8CA86EE85228779
:104B600017A500001305C5C2EF405003930544008C
:104B700083464101C2053008C1814E85EFF05F894F
:104B8000635B050097A50000938545EB17A5000022
:104B9000130505C301BF4808EFF0FF830DE1EE8563
:104BA00017A50000130505C4EF40407F914650084B
:104BB000A2854E85231B0100EFF05FAC31BF6388F7
:104BC0000B001306C00F4C085E85EF30503A83D7B8
:104BD00001130D476364F7021386011383D5A112F5
:104BE0005685EFF03FC7635B050097A500009385EE
:104BF000E5E417A500001305A5C06DB52398311392
:104C000023998112D247850C23A6F112F1B5B387FF
:104C1000BA01814C01443EC497AD0000938D0DE272
:104C2000D1B5E3D097EE13860113DA856285EFF0F4
:104C30007FC2E35805EC97A50000938525E017A5F2
:104C40000000130525BEB9BD6971B7070400232E06
:104C500031119107C16923248112232021132328B4
:104C60006111232671112326111223229112232C64
:104C70004111232A51112324811123A2F1101384FD
:104C8000A110EF0070060149F51917AB0000130BD6
:104C9000ABC697AB0000938BEBB4131A8900931447
:104CA000090185462286D2852D45C1802310040046
:104CB00023110400231204002313040097C0FF1FD4
:104CC000E780008229C597A50000938525D717A501
:104CD00000001305E5B6EF40606C8320C112032489
:104CE000811285472380F110832441120329011288
:104CF0008329C111032A8111832A4111032B011138
:104D0000832BC110032C811001455561828003451E
:104D10000400EFF06FE7AA864A8697A50000938506
:104D2000E5D117A500001305E5B3EF402067034662
:104D300004009307C00F630DF60C63E8C7024DC66D
:104D400097A50000938585CF17A50000130545C3DF
:104D5000EF40C064A68513850110EFF08FF2634B1E
:104D60000524FD572300F40041A09307E00F6301E1
:104D7000F60A9307F00FE315F6FC130600109305EF
:104D8000F00F0A85EFB07FB7930600100A86D28530
:104D90002D4597B0FF1FE780A07405C597A50000BB
:104DA0009385C5C917A50000130505ADEF40005F49
:104DB00097A50000938585C817A50000130505ADCC
:104DC00019BF81479306F00F130700103306F10057
:104DD00003460600631FD61A8507E399E7FE83D7CB
:104DE000211085072391F110050991472104E3164D
:104DF000F9EA83D6411003D6211097A500009385C8
:104E0000E5C317A500001305A5BAEF402059F1B579
:104E10001306C00F81450A85EFB03FAE4A8697A5BD
:104E200000009385A5C117A50000130525A923122D
:104E3000040023110400130AE00FEF402056130C66
:104E4000F00F97AA0000938A6ABF835544006371EC
:104E5000BA049305C00F2685EFF00FEC034704005A
:104E60009307C00F6315F710835724006391071051
:104E7000A68513850110EFF0CFE0635A050E97A5C4
:104E800000009385A5BB17A500001305E58C05A0C0
:104E900091460A862685EFF0AFD76355050297A5A0
:104EA00000009385A5B917A500001305A5A2EF4042
:104EB000E04E97A50000938565B817A5000013057F
:104EC00065AA11BD03460100630E860983562100C1
:104ED0009387F6FFC207C18363EFF904034711000C
:104EE000D6855A85EF40804B8355440083460100A8
:104EF00050009105C205C1812685EFF06FD1635B3B
:104F0000050097A50000938565B317A5000013055C
:104F1000258B71BF0A85EFF00FCC1DE5D6855E8528
:104F2000EF40C0478355440091460A8626852311E9
:104F30000100EFF0AFF483470100035744009107ED
:104F4000BA972312F40011B7834701000357640096
:104F50009107BA972313F400835724008507231180
:104F6000F400D1BF83574400E37AFAEEDDB503576E
:104F70006400835644004A8697A50000938505ACDB
:104F800017A500001305059AEF40404123929110A8
:104F9000A1BD97A50000938565AA17A5000013057C
:104FA00025A4EF40A03FA68513850110EFF06FCD3B
:104FB000E35705E297A50000938545A817A50000D3
:104FC0001305858E09BB130101DC232C81222328C4
:104FD0002123232631232E84AA898145328928085A
:104FE0001306C00F232E1122232A912223244123AA
:104FF0002322512323206123232E7121232C81215D
:10500000232A9121EFB07F8F514697750000938539
:1050100065F1480002C0EF30807521C49307F9FFA5
:105020001307700F7D556360F7381387F9FF420748
:10503000C1674183F51763E8E73691470A862C0874
:105040004E852310F100EFF0FF98635E050097A5F1
:1050500000009385A59E17A500001305E5B4EF4059
:10506000E0337D5589A64A86A2856808230C210174
:10507000231D3101EF30A06F4A866C084800EFB065
:105080001FDAA30CA10011099307800F7D5463E27E
:10509000270F83D441100D4A2684637C9A00930520
:1050A000E00F0145EFF0CFD9131405014180636D86
:1050B0008A262285EFF02FD4637D250B03D721109C
:1050C000894763E6E7088D4763F3970081441386B9
:1050D00001104165A68711449308C00F328A8D459F
:1050E0007D1593963700B29603C8A6001397070163
:1050F0004183631E180163EB850013183400329856
:1051000003D3C6008356C8006373D3003A8463E1B7
:10511000E5086301B708E98F8507E394F4FC8D4740
:1051200063FC8706179600001306465097A50000FB
:105130009385C59017A500001305C5A8EF4000266C
:1051400003D441102285EFF00FCB63742503930540
:10515000C00F2285EFF04FBC6359051C97A50000D6
:105160009385C58D17A50000130585ACEF4000237E
:105170007D5493140401C1808D4763F5971E97A554
:1051800000009385A58B17A500001305E5ADC1BDF3
:10519000FD5781BF814751B71306C00F8145480AAB
:1051A000EFB0AFF5228697A500009385258917A556
:1051B00000001305E5A2EF40601E93173400814400
:1051C0003E9A8D4A17AB0000130B4B87979B00004C
:1051D000938B4B618357EA0063E2F402A285138547
:1051E0000110EFF00FAAE35D05F497A50000938589
:1051F000E58417950000130525560DA09146500A29
:10520000A6852285EFF0CFA06356050297A5000082
:105210009385C5821795000013054555EF4000188A
:10522000228697A500009385658117A500001305C8
:10523000259E29B7834751118346411181C7835762
:10524000611191E79106B694C204C18061B793855C
:105250004400C205300AC1812285EFF06F9B635B79
:105260000500979500009385657D1795000013054F
:1052700025556DB7480AEFF00F9615E9DA855E857A
:10528000EF40C011A6859146500A2285231B0110CC
:10529000EFF0CFBE834741119107BE948357CA00F8
:1052A000C204C18085DBFD172316FA0025B703DC95
:1052B00041106285EFF02FB483474111910763706D
:1052C000F5049305F00F6285EFF08FB7931C05018D
:1052D00093DC0C0163FB9A0197950000938505769A
:1052E00017A500001305459115BF9305C00F6285F2
:1052F000EFF08FA29305E00F6685EFF0EFA14C0A67
:1053000003D54110EFF00FC0635B050097950000D7
:105310009385C57217A500001305058501B783475E
:1053200041119107BE940DB7014422859305F00FFA
:10533000EFF00FB12A84420541818D4763FBA7003E
:10534000979500009385856F17A50000130545907C
:1053500031BD9305E00FEFF02F9CE34105E04204DF
:10536000418001BD2C082685EFF0CFB9635B0500B5
:10537000979500009385856C17A50000130585900F
:10538000F9B9938701100E043E940347A4009307D4
:10539000E00F6314F70023929110035701008D472B
:1053A00063FCE70201458320C12303248123832476
:1053B0004123032901238329C122032A8122832A2D
:1053C0004122032B0122832BC121032C8121832C19
:1053D00041211301012482800A86CE8513850110A4
:1053E000EFF04FC7E35005FC9795000093850565E6
:1053F00017A500001305058B9DB16D712324811045
:1054000023229110232021112A842E89B2848145E0
:105410001306C00F480023261110EFB00FCE83C72C
:10542000011089EF7D5422858320C110032481104F
:10543000832441100329011051618280E30409FE95
:10544000E35290FE1307F4FF4207C1674183F5174B
:10545000E3EAE7FC228501464C00EFF0AFD72A844F
:10546000E34205FC69D10344410063D384002684F0
:1054700022862C004A85EF30802F75B783C70186BE
:1054800085E7411181461386411381451D4506C6B6
:1054900097B0FF1FE780C004B24085472380F186A4
:1054A000138541134101828013854113828041118C
:1054B00006C6AD2C9307803E3355F502B2409306E5
:1054C000F5FF33B5A6003687B7F600E098CA930714
:1054D000F5FFDCCA0567B7E700E023A0E7109307F4
:1054E000F0029CC241018280938781868843CC432D
:1054F0008280138781861C4358433385A740B3B706
:10550000A700B305B7409D8D8280B717004083C8C0
:105510008705854603C89705A38C0704238CD70409
:1055200003C7970593F8F80F1378F80F13679702DE
:10553000A38CE704238DD704371700408347A705C2
:105540009305A705858BFDFB0565C1463717004010
:10555000054E1303F5FF2380C50103C60500058A28
:105560006DFE0356C705FD16C2061346F6FF3376D9
:105570006600C182B297E5F283469705A107918341
:1055800093F6760F13050580A30CD7041D8D230C0D
:1055900017054205A30C070541858280B717004017
:1055A00003C777051A0592054D8D1377E70F13652D
:1055B0003500A38BE7041375F50FA38CA704828035
:1055C0000547B7170040238DE7043717004083478E
:1055D000A705858BEDFF0355C705520551818280D4
:1055E000914763EEB702179700001307A76D8A056E
:1055F000BA959C41BA978287B717004003A7470B1B
:105600001345F5FF698F23AAE70A03A7070B698FE4
:1056100023A8E70A03A7070A798D23A0A70A828097
:10562000B717004083A6470B1347F5FFF98E23AA4F
:10563000D70A83A6070B558D23A8A70A83A6070AB6
:10564000758F23A0E70A8280B717004003A7470B96
:10565000498F23AAE70A03A7070B1345F5FF45BFA8
:10566000B717004083A6470B1347F5FF758F23AA92
:10567000E70A03A7070A598D4DB7B717004003A7DC
:10568000470B498FEDB7914763EEB70217970000BC
:10569000130787648A05BA959C41BA978287B71722
:1056A000004003A7470D1345F5FF698F23AAE70CB8
:1056B00003A7070D698F23A8E70C03A7070C798DB3
:1056C00023A0A70C8280B717004083A6470D13477D
:1056D000F5FFF98E23AAD70C83A6070D558D23A8B5
:1056E000A70C83A6070C758F23A0E70C8280B71741
:1056F000004003A7470D498F23AAE70C03A7070D16
:105700001345F5FF45BFB717004083A6470D134764
:10571000F5FF758F23AAE70C03A7070C598D4DB72A
:10572000B717004003A7470D498FEDB7B7170040E3
:1057300003D58700420541819377050491EB937768
:10574000F5013755E801130505803345F5028280E0
:105750009377050C130700046397E7009377F5012F
:1057600037459C1CCDB72165130505D08280B7173E
:105770000040130770052380E704130780FA238095
:10578000E7040100010003C7670411E91377D70F8D
:105790002383E704B7170040238007048280136740
:1057A0002700FDB7814737370040A14663C4C700D3
:1057B000328582800345B740E38EA6FE3385F5002F
:1057C0000345050085072304A740CDB7B727004050
:1057D000C8C709472380E70011472380E70082807C
:1057E000B727004023A6A74009472380E740114779
:1057F0002380E7408280411122C406C62A84EFF04C
:10580000FFF22947B307E502B2408D83B3D7870281
:1058100022449507B3D7E70237370040C207C18358
:105820002316F7404101828071654111130505205F
:1058300006C6EFF05FFCB7370040130770F823810E
:10584000E7400D47A381E74013070004A380E7402A
:1058500005472387E740B24041018280411122C4BD
:1058600006C62A84EFF09FEC2947B307E502B24051
:105870008D83B3D7870222449507B3D7E702374712
:105880000040C207C1832316F7C0410182807165C1
:1058900041111305052006C6EFF05FFCB747004035
:1058A000130770F82381E7C00D47A381E7C01307F2
:1058B0000004A380E7C005472387E7C0B240410149
:1058C000828037470040834727C01A0593F7F703C4
:1058D000C98F93F7F70F2301F7C08280B7470040C5
:1058E00003C717C019C9D98DA380B7C003C707C0A4
:1058F000136787002380E7C0828093C5F5FFF98D89
:10590000A380B7C08280B74700402147B746004018
:1059100091E1828003C6B7C0E30CC7FE05050346CC
:10592000F5FFFD15C2052384C6C0C181D5B7B68772
:10593000B2882A832E88639D061463F9C50A4167DD
:10594000636EE61AB70700016363F6349356860167
:10595000E147179700001307674D36970347070085
:10596000BA97130700021D8F19CB3398E500B35780
:10597000F500B318E60033E807013313E50013D64A
:1059800008013355C80293960801C1829357030159
:105990003377C802B385A60242073368F700637AFB
:1059A000B80046989307F5FF636418016367B83041
:1059B0003E853308B8403357C802420313530301EE
:1059C0003378C802B386E602420833686800637B16
:1059D000D80046989307F7FF63651801791763634A
:1059E000D8003E874205598D8145828001E60547F2
:1059F000B358C702416763EAE80EB707000163ECDA
:105A0000F82893D68801E14717970000130707424B
:105A1000369783460700BE9693070002958FE5EB05
:105A2000939E08013387154113DF080193DE0E01B1
:105A30008545935703013355E7033377E703B306EF
:105A4000D5034207D98F63FAD700C6971307F5FF2E
:105A500063E4170163E6D7263A85958F33D7E703CA
:105A6000420313530301B3F7E703B30ED703C2078F
:105A7000B3E7670063FBD701C6979306F7FF63E5BB
:105A80001701791763E3D70136874205598D828064
:105A900063E2D504C16763E2F604B707000163E47B
:105AA000F61E13D786016148979700009387073841
:105AB000BA9703C70700130E00024297330EEE4059
:105AC000631A0E0C63EDB61C3335C5001345150083
:105AD000814582808145014582809307F00F63F301
